:100000000C94AC000C94680C0C94950C0C94EA03C2
:100010000C940E040C9432040C94D4000C94D40070
:100020000C94D4000C94D4000C94D4000C94D40000
:100030000C94D4000C94D4000C94D4000C94D400F0
:100040000C94C20C0C94D4000C94400E0C94870EAB
:100050000C94D4000C94D4000C94D4000C94D400D0
:100060000C94D4000C94D40000C2010001001100D3
:1000700011000C0000E100000A002500250021000D
:10008000009600001900390039003600127A00008D
:100090001F004600460044008070000022004D0012
:1000A0004D004A00004B00003600750075007200DC
:1000B000403800004A009C009C0099008025000008
:1000C0007200EC00EC00E900C0120000E900DA0167
:1000D000DA01D70160090000D701B603B603B30304
:1000E000B0040000B3036E076E076B072C0100001D
:1000F000DC0EC11DC11DBE1D000000002400270034
:100100002A0000000000250028002B00000000004D
:100110002300260029000404040404040404020249
:100120000202020203030303030301020408102076
:100130004080010204081020010204081020000081
:100140000007000201000003040600000000000098
:1001500000003B0CED0F400C11241FBECFEFD8E088
:10016000DEBFCDBF13E0A0E0B1E0E0E5F7E202C002
:1001700005900D92A23FB107D9F715E0A2EFB3E0C9
:1001800001C01D92A33CB107E1F711E0C6E5D1E043
:1001900004C02297FE010E941212C235D107C9F78E
:1001A0000E943D100C949B130C9400008F929F9220
:1001B000AF92BF92CF92DF92EF92FF920F931F9375
:1001C000CF93DF9300D0CDB7DEB76C01A22EB02E57
:1001D00022E0822E912C880E991EC4014A836983E5
:1001E0000E94AF0532E1E32EF12CEC0CFD1CC7019F
:1001F0000E94AF05C40169814A8100E815E220E050
:1002000030E00E941307C4010E94C505C7016A2D92
:100210004B2D00E815E220E030E00E941307C701F3
:100220000E94C50585E590E0F60193A382A31182A3
:1002300010820F900F90DF91CF911F910F91FF903F
:10024000EF90DF90CF90BF90AF909F908F900895E8
:10025000EF92FF920F931F93CF93DF9300D000D0C4
:10026000CDB7DEB77C011C821B828C010E5F1F4F55
:10027000C80140E855E260E070E00E945107C80103
:1002800061E0AE014D5F5F4F0E94E506F70122A1DC
:1002900033A18130A9F48B819C812817390784F020
:1002A00097FD0EC0C8010E94C5056091760170914E
:1002B0007701882777FD8095982F0E94180D05C03B
:1002C0003C832B83C8010E94C5051A8219828701CD
:1002D0000E5E1F4FC80140E855E260E070E00E94EA
:1002E0005107C80161E0AE014F5F5F4F0E94E50614
:1002F000F70122A133A18130D9F489819A8128178D
:100300003907B4F04B815C8157FD12C0FEEF8F3F7F
:100310009F0771F0C8010E94C50560917601709138
:100320007701882777FD8095982F0E94180D05C0CA
:100330003A832983C8010E94C5058091F20388236E
:1003400009F061C04091F7032B813C8180917201DB
:1003500090917301442329F1821793070CF0CDC0CB
:1003600029813A81821793070CF0C7C0F701808179
:1003700091810196918380831092F7031092F30389
:1003800080EA95E060E071E00E94951180EA95E0D6
:1003900060E071E00E94951180EA95E061E071E013
:1003A00065C04091F903442331F128173907E4F47B
:1003B0002091F8032F5F2093F80330E080917401BF
:1003C00090917501281739070CF497C081E080934C
:1003D000F7031092F9031092F80380EA95E065E1C3
:1003E00071E00E94951189C01092F8031092F903F0
:1003F0001092F30382C0281739072CF481E0809310
:10040000F3038093F9038091F303882309F075C007
:100410002091F40380917201909173012223E1F104
:100420002B813C81821793070CF067C029813A81A8
:10043000821793070CF061C0F701808191810197C9
:10044000918380831092F4031092F20380EA95E086
:1004500060E071E00E94951180EA95E060E071E053
:100460000E94951180EA95E06AE371E00E94921182
:10047000F7016081718180EA95E04AE050E00E94D6
:100480007F1180EA95E060E071E00E94951180EABA
:1004900095E060E071E0A5CF4091F60329813A81B3
:1004A000442319F128173907CCF42091F5032F5F65
:1004B0002093F50330E08091740190917501281725
:1004C0003907DCF081E08093F4031092F603109278
:1004D000F50380EA95E06DE471E083CF1092F503B7
:1004E0001092F6031092F20308C0281739072CF473
:1004F00081E08093F2038093F6030F900F900F90AA
:100500000F90DF91CF911F910F91FF90EF90089581
:1005100020913C0430913D0428173907B9F490919B
:10052000FA038091FB039817A1F0E091FA03F0E041
:10053000E450FC4F80812091FA0330E02F5F3F4F61
:100540002F7330702093FA0390E008958FEF9FEFA0
:1005500008958FEF9FEF089520913C0430913D0462
:100560002817390771F49091FA038091FB039817CB
:1005700059F0E091FA03F0E0E450FC4F808190E004
:1005800008958FEF9FEF08958FEF9FEF08952091CB
:100590003C0430913D042817390739F48FB7F8949B
:1005A0001092FB031092FA038FBF089520913C0430
:1005B00030913D042817390771F48091FB03209195
:1005C000FA0390E0805C9F4F821B910960E470E029
:1005D0000E94C711089580E090E0089520E00197FF
:1005E0002FEF8F3F9207D9F70895FC0180913C04CB
:1005F00090913D048E179F0781F0838D8E7F838FAE
:100600008FB7F8941092FB031092FA03F0933D0415
:10061000E0933C048FBF81E0089580E00895EF925D
:10062000FF920F931F93CF93DF93EC018B8DEE8599
:10063000FF859D8581FF04C08081892329F448C0FE
:100640008081892309F044C08B899C890E94EE0235
:1006500028E0E22EF12C01E010E08D899E890E94B5
:10066000EE02EE85FF8580819D85892311F0102B98
:1006700003C0802F80951823000F0894E108F1082B
:10068000E114F10451F78F89988D0E94EE028B8D51
:1006900081FD10958091FB032091FA0390E0019673
:1006A0008F73907030E08217930779F0E091FB032D
:1006B000F0E0E450FC4F10838091FB0390E0019642
:1006C0008F7390708093FB0303C08B8D81608B8F41
:1006D000DF91CF911F910F91FF90EF900895FC0152
:1006E000A189B2899089662329F42C91892F80955C
:1006F000822302C08C91892B8C930895DF92EF9214
:10070000FF920F931F93CF93DF93EC01F62E898D09
:100710009A8D009739F481E090E09B838A8380E092
:1007200090E047C0EFB6F8948B8D61E081FF60E008
:10073000CE010E946F03898D9A8D05960E94EE026C
:100740008B8D08E010E0DD24D39481FF15C08D2D42
:100750008F2119F0CE0160E002C0CE0161E00E945D
:100760006F03898D9A8D0E94EE02DD0C01501040BE
:1007700071F7CE0160E014C08D2D8F2119F0CE01EC
:1007800061E002C0CE0160E00E946F03898D9A8D06
:100790000E94EE02DD0C0150104071F7CE0161E0C5
:1007A0000E946F03EFBE898D9A8D0E94EE0281E058
:1007B00090E0DF91CF911F910F91FF90EF90DF902C
:1007C000089580913C0490913D04009711F00E949F
:1007D0000F0308951F920F920FB60F9211242F93BB
:1007E0003F934F935F936F937F938F939F93AF93B9
:1007F000BF93EF93FF930E94E103FF91EF91BF91AD
:10080000AF919F918F917F916F915F914F913F91A8
:100810002F910F900FBE0F901F9018951F920F925F
:100820000FB60F9211242F933F934F935F936F93C3
:100830007F938F939F93AF93BF93EF93FF930E9408
:10084000E103FF91EF91BF91AF919F918F917F91C4
:100850006F915F914F913F912F910F900FBE0F902D
:100860001F9018951F920F920FB60F9211242F937D
:100870003F934F935F936F937F938F939F93AF9328
:10088000BF93EF93FF930E94E103FF91EF91BF911C
:10089000AF919F918F917F916F915F914F913F9118
:1008A0002F910F900FBE0F901F9018951F93CF930D
:1008B000DF93EC01162F862F61E00E94AC0D812F93
:1008C00061E00E94EB0D812F90E0FC01E65DFE4FA0
:1008D000E491E88BFC01EA5EFE4FE491F0E0EE0F5C
:1008E000FF1FEE5FFE4F85919491898B9A8BDF916C
:1008F000CF911F9108951F93CF93DF93EC01162F93
:10090000862F60E00E94AC0D8B8D81FD04C0812F8D
:1009100061E00E94EB0D1C87812F90E0FC01E65DF9
:10092000FE4FE491ED87FC01EA5EFE4FE491F0E0BA
:10093000EE0FFF1FE45FFE4F859194918E879F8796
:10094000DF91CF911F9108951F93CF93DF93EC0117
:10095000162F1B821A8288EE93E0A0E0B0E08C8311
:100960009D83AE83BF838CE791E0998388831C8A43
:100970001B8A1E8A1D8A188E1F8A1A8E198E8B8DCD
:100980002170220F8C7F822B8B8FCE01642F0E94CF
:100990005604CE01612F0E947B04DF91CF911F91FD
:1009A0000895CF92DF92EF92FF92CF93DF93EC0105
:1009B0006A017B011A8E198E188E1F8A1E8A1D8A63
:1009C0001C8A1B8A20E030E0A901440F551F420F0A
:1009D000531F440F551F440F551FFA01E859FF4F8D
:1009E00085919591A591B4918C159D05AE05BF0596
:1009F000E9F4FA01E459FF4F859194918B8B9C8B1C
:100A0000FA01E259FF4F859194918D8B9E8BFA01EB
:100A1000E059FF4F859194918F8B988F4E585F4F7F
:100A2000FA0185919491898F9A8F06C02F5F3F4F6D
:100A30002C30310509F0C8CF8F89988D009709F4C3
:100A400048C09C85963108F040C0209168009830DD
:100A500020F09E3020F082E003C084E001C081E0FD
:100A6000822B809368005C85583048F05E3060F0DF
:100A70005631C8F1E0E0F0E0A0E0B0E009C0EDE6FA
:100A8000F0E0ADE6B0E004C0EBE6F0E0ABE6B0E0ED
:100A90004C91583040F481E090E002C0880F991FDB
:100AA0005A95E2F710C0252F30E05E3018F4285038
:100AB000304002C02E50304081E090E002C0880FEC
:100AC000991F2A95E2F7842B8083898D9A8D0E9445
:100AD000EE02CE010E94F502DF91CF91FF90EF90E0
:100AE000DF90CF900895ECE6F0E0ACE6B0E0D0CF38
:100AF000FC014485463150F5483028F04E3030F046
:100B0000ECE6F0E005C0EDE6F0E002C0EBE6F0E078
:100B10005081483040F481E090E002C0880F991F76
:100B20004A95E2F710C0242F30E04E3018F42850D8
:100B3000304002C02E50304081E090E002C0880F6B
:100B4000991F2A95E2F780958523808308952CE7E5
:100B500031E0FC01318320830E9478050895FC0177
:100B600016820895DC0114968D919C911597DC01F5
:100B7000ED91FC910480F581E02D099521E0843010
:100B800091050CF420E0822F0895FC018481958169
:100B90000E94780508950F931F93CF93DF938C01E4
:100BA000C0E0D0E0D80114968D919C911597DC019E
:100BB000ED91FC910680F781E02D0995F801EC0F8D
:100BC000FD1F83872196C430D10561F7DF91CF9156
:100BD0001F910F910895FC01118684852585922F20
:100BE00098239F3F59F09FEF899FC0011124820FE6
:100BF000911DFB019183808381E0089583E0089536
:100C0000FC01DB0112868585948598239F3F61F066
:100C1000882321F411961C921E9204C08C93119685
:100C20001C92119782E0089583E00895CF93DF939B
:100C3000EC018A85882319F48985882391F00E9424
:100C40000A0DAB01BC0188819981481B590B8F8526
:100C500090E0841795072CF0852F881F8827881F20
:100C600001C081E0DF91CF9108950F931F93CF933F
:100C7000DF93EC018B010E94B2058823F1F0CE01D5
:100C80000E9416068823D9F4CE010E94CB058B85DD
:100C9000813139F0823251F4CE01B8010E94EB0566
:100CA0000FC0CE01B8010E9400060AC01A8619863C
:100CB000F8011182108283E003C084E001C085E066
:100CC000DF91CF911F910F910895AF92BF92CF9274
:100CD000DF92EF92FF920F931F93CF936C018B01E2
:100CE000EE24FF24C0E0D60114968D919C911597B7
:100CF0005801DC01ED91FC910190F081E02DD801CB
:100D00006D918D010995F5018081C80F0894E11C52
:100D1000F11CF3E0EF16F10431F7D60114968D9132
:100D20009C911597DC01ED91FC910190F081E02DF3
:100D30006C2F0995CF911F910F91FF90EF90DF904D
:100D4000CF90BF90AF900895FF920F931F93CF93D2
:100D5000DF9300D00F92CDB7DEB78C01F62E0E9444
:100D60000A0DDC01CB01F80180839183A283B38358
:100D70001A821B82F1E0FF1679F082E0F816D9F4AE
:100D800081E18983C801BE016F5F7F4F0E946506C4
:100D900081E0F801828710C082E28983F8018681B0
:100DA0008A83C801BE016F5F7F4F0E946506F8010C
:100DB000F18681E001C080E00F900F900F90DF91ED
:100DC000CF911F910F91FF9008950F931F93CF9391
:100DD000DF93EC018A010E94A4068823B1F0CE01C2
:100DE0000E9416068823C9F4CE010E94B20588230A
:100DF000A1F46AE070E080E090E00E94180DEFCF6F
:100E0000CE01B8010E94350603C084E001C085E030
:100E1000DF91CF911F910F910895CE010E94160688
:100E20008823A9F7EDCFAF92BF92CF92DF92EF92D6
:100E3000FF920F931F93CF93DF9300D0CDB7DEB710
:100E40005C0168017901FC01118612861682108608
:100E50008AE5878388EC878713861486158616862D
:100E60008CE190E04A8369830E944D108C01698176
:100E70004A8120E00E94A404F50115830483C8017F
:100E8000B701A6010E94D1040F900F90DF91CF917E
:100E90001F910F91FF90EF90DF90CF90BF90AF9098
:100EA0000895FC01848195810E94D1040895CF9317
:100EB000DF93EC0120E00E94A4041C8E1D8EDF91C4
:100EC000CF910895CF93DF93D82FC92F40E855E2F3
:100ED00060E070E00E94D1048D2F9C2F0E94F502EB
:100EE0008D2F9C2F0E94C702DF91CF9108950E9401
:100EF000780508950E94501321E0009709F420E03E
:100F0000822F08952F923F924F925F926F927F921D
:100F10008F929F92AF92BF92CF92DF92EF92FF9209
:100F20000F931F93CF93DF93F82EE92E1B016A01D5
:100F300080E590E00E9416128C018FE4F801119276
:100F40008A95E9F70E940A0D2B013C01C0E0D0E030
:100F50004601AA2497FCA094BA2C8F2D9E2D0E94A6
:100F6000D6020097A9F08F2D9E2D0E948802CF34C3
:100F7000D10534F4F801EC0FFD1F8083219608C0E1
:100F800080EA95E069EA71E00E949511C0E0D0E046
:100F9000C801B1010E947A07882379F40E940A0DE2
:100FA000DC01CB0184199509A609B70988169906B1
:100FB000AA06BB0690F6C0E001C0C1E080EA95E059
:100FC000B8010E9495118F2D9E2D0E94C7028C2F73
:100FD000DF91CF911F910F91FF90EF90DF90CF9015
:100FE000BF90AF909F908F907F906F905F904F9049
:100FF0003F902F9008958F929F92AF92BF92CF9281
:10100000DF92EF92FF921F93CF93DF93D82FC92FD8
:10101000162F6A010E940A0D4B015C01EE24D7FCD9
:10102000E094FE2C8D2F9C2F0E94D602009739F061
:101030008D2F9C2F0E948802112381F4F3CF0E94F0
:101040000A0DDC01CB0188199909AA09BB09C81648
:10105000D906EA06FB0630F710E001C011E08D2F3B
:101060009C2F0E94C702812FDF91CF911F91FF908B
:10107000EF90DF90CF90BF90AF909F908F900895AA
:10108000CF93DF93EC010E94C702CE0169EB71E0C0
:101090000E9492116CE271E080E090E00E94180DD5
:1010A000CE016DEB71E048EB5BE00E948207882384
:1010B00019F081E08C8F01C01C8E8C8DDF91CF9157
:1010C0000895CF93DF93EC0161EC71E00E949511DC
:1010D0006CE271E080E090E00E94180D1C8E80E0D0
:1010E000DF91CF910895CF93DF93EC018C8D88230E
:1010F00019F4CE010E94400864E670E080E090E0C0
:101100000E94180DCE0166EC71E00E9492111C8EB7
:10111000DF91CF910895CF93DF93EC018C8D8823DD
:1011200049F0CE010E94610868EE73E080E090E033
:101130000E94180DCE016EEC71E048EB5BE00E945E
:101140008207882319F081E08D8F01C01D8E8D8D5F
:10115000DF91CF910895CF93DF93EC018C8D88239D
:1011600019F4CE010E94400880EA95E069EF71E031
:101170000E94951164EF71E080E090E00E94180DEC
:1011800080EA95E06DE072E00E949511CE010E9428
:10119000C702CE016DE072E00E94951164EF71E02C
:1011A00080E090E00E94180D80EA95E068E272E02D
:1011B0000E949511CE010E94C702CE0168E272E042
:1011C0000E94951164EF71E080E090E00E94180D9C
:1011D00080EA95E063E472E00E949511CE010E94DE
:1011E000C702CE0163E472E00E94951164EF71E0E2
:1011F00080E090E00E94180D80EA95E061E572E0E1
:101200000E949511CE010E94C702CE0161E572E0F5
:101210000E94951164EF71E080E090E00E94180D4B
:1012200080EA95E06CE672E00E949511CE010E9482
:10123000C702CE016CE672E00E94951164EF71E086
:1012400080E090E00E94180D80EA95E06FE772E080
:101250000E949511CE010E94C702CE016FE772E095
:101260000E94951164EF71E080E090E00E94180DFB
:1012700080EA95E06FE872E00E949511CE010E942D
:10128000C702CE016FE872E00E94951164EF71E031
:1012900080E090E00E94180D80EA95E06FED71E02B
:1012A0000E949511CE010E94C702CE016FED71E040
:1012B0000E94951164EF71E080E090E00E94180DAB
:1012C00060ED77E080E090E00E94180D1C8ECE016A
:1012D0000E94C70280EA95E064E972E00E949511DD
:1012E000DF91CF910895CF93DF93EC010E94D60256
:1012F000009789F0CE016FE972E048EB5BE00E9455
:101300008207882341F080EA95E069EA72E00E9452
:10131000951181E001C080E0DF91CF910895CF93D6
:10132000DF93D82FC92F0E94D6020097C1F080EA20
:1013300095E066EB72E00E94951160EA7FE080E044
:1013400090E00E94180D8D2F9C2F0E94C70280EA0A
:1013500095E06EEB72E00E94951181E001C080E0A3
:10136000DF91CF910895CF93DF93EC018C8D88238B
:1013700019F4CE010E94400880EA95E069EF71E01F
:101380000E94951164EF71E080E090E00E94180DDA
:1013900080EA95E065EC72E00E949511CE010E9412
:1013A000C702CE0165EC72E00E94951164EF71E016
:1013B00080E090E00E94180D80EA95E065ED72E013
:1013C0000E949511CE010E94C702CE0165ED72E028
:1013D0000E94951164EF71E080E090E00E94180D8A
:1013E00080EA95E066EF72E00E949511CE010E94BE
:1013F000C702CE0166EF72E00E94951164EF71E0C2
:1014000080E090E00E94180D80EA95E067E073E0CC
:101410000E949511CE010E94C702CE0167E073E0E1
:101420000E94951164EF71E080E090E00E94180D39
:1014300080EA95E06FE872E00E949511CE010E946B
:10144000C702CE016FE872E00E94951164EF71E06F
:1014500080E090E00E94180D80EA95E061EC71E078
:101460000E949511CE010E94C702CE0161EC71E08D
:101470000E94951164EF71E080E090E00E94180DE9
:1014800060ED77E080E090E00E94180D1C8E80EA0D
:1014900095E068E173E00E949511CE010E94C702B9
:1014A000DF91CF910895EF92FF920F931F93CF9307
:1014B000DF93EC018B0180EA95E065E273E00E9426
:1014C00095117E01CE0169EB71E00E94921164EFEB
:1014D00071E080E090E00E94180D80EA95E061E301
:1014E00073E00E949511CE010E94C702CE0161E314
:1014F00073E00E949511CE016DE473E040E757E17F
:101500000E94820780EA95E064E573E00E949511ED
:1015100060ED77E080E090E00E94180D10923E04AC
:101520008EE394E06EE573E00E9445138EE394E051
:10153000B8010E944513CE016EE374E00E9492113F
:10154000CE0168E240E45FE10E94FB07882331F0AE
:1015500080EA95E066E773E00E949511C70161ECAF
:1015600071E00E9495111C8EDF91CF911F910F9118
:10157000FF90EF900895CF92DF92EF92FF920E943A
:101580000A0D6B017C018091070590910805A091DF
:101590000905B0910A05A7019601281B390B4A0BD2
:1015A0005B0B293C31054105510548F080EA95E087
:1015B0006EE773E00E94951181E08093C304C092AE
:1015C0000705D0920805E0920905F0920A05FF9000
:1015D000EF90DF90CF9008950F938130910579F4CB
:1015E00089EE94E064E045E00E94570785EC94E0C2
:1015F00066E047E02AE00BE00E94D60006C00097B4
:1016000021F489EE94E00E94A7050F910895CF93ED
:1016100089EE94E00E948B08C82F882319F010925D
:10162000DB0303C082E08093DB0380EA95E068E897
:1016300073E00E94921180EA95E06C2F4AE050E03E
:101640000E942111CF9108950F931F93CF93DF93A1
:101650008DE061E00E94AC0D00EA15E0C80140E8B1
:1016600055E260E070E00E94C20EC8016FE873E0CE
:101670000E949511C9EED4E0CE010E946207CE010E
:1016800065E973E00E94951160ED77E080E090E0FD
:101690000E94180DC8016AE973E00E949511CE01FD
:1016A0000E9473080E94070B80E06BEB7AE043E036
:1016B00050E00E94450CDF91CF911F910F9108954A
:1016C000CF93DF938091C204882379F40E940A0D9E
:1016D000DC01CB018093BE049093BF04A093C004AF
:1016E000B093C10481E08093C2040E940A0DDC0122
:1016F000CB014091BE045091BF046091C004709131
:10170000C104841B950BA60BB70B813325E7920709
:1017100020E0A20720E0B207D0F180EA95E06EE970
:1017200073E00E94951189EE94E00E946207809117
:10173000C5049091C6046BEA73E04AE050E00E9451
:101740006A13EC0189EE94E065E973E00E9495115B
:1017500089EE94E00E94C70280EA95E06EEA73E0A9
:101760000E94951189EE94E0BE010E94530A0E94E6
:101770000A0DDC01CB018093BE049093BF04A093BB
:10178000C004B093C10489EE94E00E947707DF9112
:10179000CF9108958091C3048823B9F01092C304B7
:1017A00089EE94E00E94620789EE94E00E94AB0803
:1017B00083E08093DB0380EA95E063EB73E00E94B3
:1017C000951189EE94E00E94C7028091DB0382307C
:1017D00071F0833030F48823A9F1813009F04AC0D8
:1017E00043C0833039F0843009F044C021C00E94E6
:1017F000070B089589EE94E00E9473098823D1F1C4
:1018000080EA95E069EB73E00E94951184E0809393
:10181000DB0368EB7BE080E090E00E94180D89EE2E
:1018200094E00E94C70280EA95E066EC73E019C07C
:1018300089EE94E00E948F098823E1F082E0809392
:10184000DB03089589EE94E00E94B30989EE94E0E9
:101850000E94770781E08093DB0380EA95E067EDE3
:1018600073E00E94951108950E94600B85EC94E04E
:101870000E942801089581E090E00E94EC0A0895FA
:1018800080E090E00E94EC0A0895823000F5E82F95
:10189000F0E0EE0FFF1FE55FFA4F7183608388234E
:1018A00019F08130A1F408C0809169008C7F842BED
:1018B00080936900E89A089580916900440F551F4C
:1018C000440F551F837F842B80936900E99A089504
:1018D0001F920F920FB60F9211242F933F934F93A5
:1018E0005F936F937F938F939F93AF93BF93EF9388
:1018F000FF9380910B0590910C05892B29F0E091C5
:101900000B05F0910C050995FF91EF91BF91AF91F7
:101910009F918F917F916F915F914F913F912F9107
:101920000F900FBE0F901F9018951F920F920FB639
:101930000F9211242F933F934F935F936F937F9355
:101940008F939F93AF93BF93EF93FF9380910D0578
:1019500090910E05892B29F0E0910D05F0910E056F
:101960000995FF91EF91BF91AF919F918F917F91D9
:101970006F915F914F913F912F910F900FBE0F90FC
:101980001F9018951F920F920FB60F9211242F934C
:101990003F938F939F93AF93BF9380911305909143
:1019A0001405A0911505B091160530911705019603
:1019B000A11DB11D232F2D5F2D3720F02D5701962E
:1019C000A11DB11D20931705809313059093140555
:1019D000A0931505B093160580910F059091100501
:1019E000A0911105B09112050196A11DB11D809322
:1019F0000F0590931005A0931105B0931205BF91A8
:101A0000AF919F918F913F912F910F900FBE0F90AB
:101A10001F9018958FB7F8942091130530911405F5
:101A200040911505509116058FBFB901CA0108955F
:101A30009B01AC017FB7F89480910F059091100540
:101A4000A0911105B091120566B5A89B05C06F3F26
:101A500019F00196A11DB11D7FBFBA2FA92F982F94
:101A60008827860F911DA11DB11D62E0880F991F67
:101A7000AA1FBB1F6A95D1F7BC012DC0FFB7F89410
:101A800080910F0590911005A0911105B09112055C
:101A9000E6B5A89B05C0EF3F19F00196A11DB11D49
:101AA000FFBFBA2FA92F982F88278E0F911DA11D38
:101AB000B11DE2E0880F991FAA1FBB1FEA95D1F75D
:101AC000861B970B885E9340C8F2215030404040FF
:101AD000504068517C4F211531054105510571F683
:101AE0000895789484B5826084BD84B5816084BD96
:101AF00085B5826085BD85B5816085BDEEE6F0E087
:101B0000808181608083E1E8F0E0108280818260E2
:101B10008083808181608083E0E8F0E08081816063
:101B20008083E1EBF0E0808184608083E0EBF0E093
:101B3000808181608083EAE7F0E080818460808337
:101B400080818260808380818160808380818068E1
:101B500080831092C1000895CF93DF93482F50E007
:101B6000CA01865D9E4FFC0134914A5E5E4FFA01C8
:101B70008491882369F190E0880F991FFC01E85057
:101B8000FF4FA591B491FC01EE5FFE4FC591D4913A
:101B9000662351F42FB7F8948C91932F9095892355
:101BA0008C93888189230BC0623061F42FB7F8943D
:101BB0008C91932F909589238C938881832B888394
:101BC0002FBF06C09FB7F8948C91832B8C939FBF37
:101BD000DF91CF910895482F50E0CA01825C9E4F5B
:101BE000FC012491CA01865D9E4FFC0194914A5EDE
:101BF0005E4FFA013491332309F440C0222351F19E
:101C0000233071F0243028F42130A1F0223011F576
:101C100014C02630B1F02730C1F02430D9F404C00C
:101C2000809180008F7703C0809180008F7D8093AA
:101C3000800010C084B58F7702C084B58F7D84BDCD
:101C400009C08091B0008F7703C08091B0008F7D74
:101C50008093B000E32FF0E0EE0FFF1FEE5FFE4F2A
:101C6000A591B4912FB7F894662321F48C919095A7
:101C7000892302C08C91892B8C932FBF08950895DE
:101C80001F920F920FB60F9211242F933F934F93F1
:101C90008F939F93EF93FF934091C6002091580537
:101CA000309159052F5F3F4F2F73307080915A0547
:101CB00090915B052817390759F0E0915805F0918C
:101CC0005905E85EFA4F4083309359052093580533
:101CD000FF91EF919F918F914F913F912F910F9095
:101CE0000FBE0F901F901895E091AC05F091AD05D7
:101CF000E05CFF4F8191919120813181821B930B98
:101D00008F739070892B11F00E943F0E08951F92DF
:101D10000F920FB60F9211242F933F938F939F939F
:101D2000EF93FF9320919C0530919D0580919E0536
:101D300090919F052817390731F48091C1008F7D5C
:101D40008093C10014C0E0919E05F0919F05E45A74
:101D5000FA4F208180919E0590919F0501968F7387
:101D6000907090939F0580939E052093C600FF91ED
:101D7000EF919F918F913F912F910F900FBE0F90F8
:101D80001F901895AF92BF92DF92EF92FF920F9340
:101D90001F93CF93DF93EC017A018B01DD24403058
:101DA00081EE580780E0680780E0780711F0DD24B5
:101DB000D39491E0A92EB12CEC89FD89DD2069F046
:101DC000C5010E8C02C0880F991F0A94E2F7808328
:101DD00060E079E08DE390E005C0108260E874E88F
:101DE0008EE190E0A80197010E94DA112150304065
:101DF00040405040569547953795279580E12030D3
:101E0000380720F0DD2011F0DD24D6CFE889F989EC
:101E10003083EA89FB892083EE89FF89408121E0B4
:101E200030E0C9010A8C02C0880F991F0A94E2F7BA
:101E3000482B4083EE89FF894081C9010B8C02C089
:101E4000880F991F0A94E2F7482B4083EE89FF8997
:101E50004081C9010C8C02C0880F991F0A94E2F7D7
:101E6000482B4083EE89FF8980810D8C02C0220FB0
:101E7000331F0A94E2F7209528232083DF91CF9126
:101E80001F910F91FF90EF90DF90BF90AF9008955A
:101E9000DC011C96ED91FC911D97E05CFF4F2191B8
:101EA000319180819181281B390B2F733070C901CA
:101EB0000895DC011C96ED91FC911D97E05CFF4FAD
:101EC00020813181E054F040DF01AE5BBF4F8D9146
:101ED0009C9111972817390719F42FEF3FEF07C08E
:101EE0008D919C91E80FF91F8081282F30E0C90166
:101EF0000895DC011C96ED91FC911D97E05CFF4F6D
:101F000020813181E054F040DF01AE5BBF4F8D9105
:101F10009C9111972817390719F42FEF3FEF10C044
:101F20008D919C911197E80FF91F20818D919C91C3
:101F3000119701968F73907011969C938E9330E059
:101F4000C9010895FC0186859785DC01A05CBF4F1F
:101F5000FC01EE5BFF4F2D913C91119780819181A7
:101F600028173907C1F70895CF93DF93EC01EE8569
:101F7000FF85E05CFF4F20813181E054F0402F5F0E
:101F80003F4F2F733070DF01AE5BBF4F8D919C913F
:101F9000119728173907D1F3E05CFF4F80819181B9
:101FA000E054F040E80FF91F6083EE85FF85E05CA8
:101FB000FF4F31832083EE89FF89208181E090E00B
:101FC0000D8C02C0880F991F0A94E2F7282B2083FA
:101FD00081E090E0DF91CF9108951092A3051092D7
:101FE000A20588EE93E0A0E0B0E08093A405909372
:101FF000A505A093A605B093A70586EE93E0909360
:10200000A1058093A00588E195E09093AD058093AC
:10201000AC058CE595E09093AF058093AE0585EC1B
:1020200090E09093B1058093B00584EC90E090939C
:10203000B3058093B20580EC90E09093B505809352
:10204000B40581EC90E09093B7058093B60586ECDB
:1020500090E09093B9058093B80584E08093BA0529
:1020600083E08093BB0587E08093BC0585E0809387
:10207000BD0581E08093BE050895CF93DF930E9454
:10208000710D0E94240BC4E7DEE00E94CA0B20976A
:10209000E1F30E94740EF9CF08950E94161208957C
:1020A000CF92DF92EF92FF920F931F93CF93DF9324
:1020B0007C016B018A01C0E0D0E00FC0D6016D91B8
:1020C0006D01D701ED91FC910190F081E02DC701E8
:1020D0000995C80FD91F015010400115110571F75E
:1020E000CE01DF91CF911F910F91FF90EF90DF9084
:1020F000CF900895EF92FF920F931F938C01DC0114
:10210000ED91FC910190F081E02D6DE009957C014D
:10211000D801ED91FC910190F081E02DC8016AE0B9
:1021200009959C012E0D3F1DC9011F910F91FF9034
:10213000EF900895CF93DF93DB010D900020E9F736
:102140001197A61BB70BEC01E881F9810280F3819E
:10215000E02DAD010995DF91CF9108954F925F92E7
:102160007F928F929F92AF92BF92CF92DF92EF9227
:10217000FF920F931F93DF93CF93CDB7DEB7A19755
:102180000FB6F894DEBF0FBECDBF2C01742ECB016D
:10219000223008F42AE019A231E2C32ED12CCC0E51
:1021A000DD1E822E9924AA24BB24672D752FA5013C
:1021B00094010E94DA1179018A01C801B701A501D1
:1021C00094010E94A811472D461B0894C108D1080C
:1021D0004A3014F4405D01C0495CF6014083E114CB
:1021E000F1040105110521F07E2C5F2DC801DDCF22
:1021F000C201B6010E949A10A1960FB6F894DEBFF4
:102200000FBECDBFCF91DF911F910F91FF90EF9047
:10221000DF90CF90BF90AF909F908F907F905F9016
:102220004F900895DC012115310541F4ED91FC91A9
:102230000190F081E02D642F099508950E94AE1061
:102240000895CF92DF92EF92FF920F931F936C014C
:10225000E62E9A01FF2400E010E0B801A7010E94D9
:1022600012118C01C6010E947A10080F191FC801B3
:102270001F910F91FF90EF90DF90CF900895CF9234
:10228000DF92EF92FF920F931F93CF93DF93EC01B6
:102290006A017B012115310541F4E881F981019042
:1022A000F081E02D642F09951FC02A303105D1F44B
:1022B00077FF17C0E881F9810190F081E02D6DE290
:1022C00009958C0144275527BA014C195D096E09FF
:1022D0007F09CE012AE00E94AE109801280F391F15
:1022E00004C02AE00E94AE109C01C901DF91CF9189
:1022F0001F910F91FF90EF90DF90CF900895EF9294
:10230000FF920F931F937B019A010027F7FC009522
:10231000102FB801A7010E943F111F910F91FF904C
:10232000EF9008950E949A100895EF92FF920F93F4
:102330001F937C010E949A108C01C7010E947A10A1
:10234000080F191FC8011F910F91FF90EF9008957A
:10235000629FD001739FF001829FE00DF11D649F89
:10236000E00DF11D929FF00D839FF00D749FF00D15
:10237000659FF00D9927729FB00DE11DF91F639FB6
:10238000B00DE11DF91FBD01CF011124089597FB88
:10239000092E07260AD077FD04D02ED006D00020C3
:1023A0001AF4709561957F4F0895F6F79095819591
:1023B0009F4F0895A1E21A2EAA1BBB1BFD010DC061
:1023C000AA1FBB1FEE1FFF1FA217B307E407F507E5
:1023D00020F0A21BB30BE40BF50B661F771F881FC1
:1023E000991F1A9469F760957095809590959B0157
:1023F000AC01BD01CF010895AA1BBB1B51E107C071
:10240000AA1FBB1FA617B70710F0A61BB70B881F84
:10241000991F5A95A9F780959095BC01CD01089513
:10242000EE0FFF1F0590F491E02D0994CF93DF93F9
:10243000AC018230910510F442E050E0E091C1051A
:10244000F091C20520E030E0A0E0B0E024C080813F
:10245000918184179507D0F08417950771F48281D4
:102460009381109729F013969C938E9312972CC00A
:102470009093C2058093C10527C02115310519F03D
:102480008217930718F49C01BD01EF0192818381AB
:10249000DF01E92FF82F3097D1F621153105F9F03A
:1024A000C901841B950B8430910580F48A819B813E
:1024B0006115710521F0FB019383828304C0909321
:1024C000C2058093C105FE01329642C0FE01E80FAD
:1024D000F91F4193519302979983888339C0809162
:1024E000BF059091C005009741F48091DE03909163
:1024F000DF039093C0058093BF052091DC033091EA
:10250000DD032115310541F42DB73EB78091E0037D
:102510009091E103281B390BE091BF05F091C005B4
:10252000E217F30798F42E1B3F0B2417350770F0C2
:10253000CA0102962817390748F08E0F9F1F909303
:10254000C0058093BF054193519302C0E0E0F0E0E5
:10255000CF01DF91CF9108950F931F93CF93DF9316
:102560009C01009709F48CC0DC01129713961C9211
:102570001E9212976091C1057091C2056115710597
:1025800089F48D919C911197820F931F2091BF0523
:102590003091C0052817390769F5B093C005A0939D
:1025A000BF056EC0FB0140E050E001C0FC01EA172E
:1025B000FB0730F482819381AF010097B9F71FC008
:1025C000E9012297FB83EA8308811981C901800F01
:1025D000911F8E179F0759F480819181800F911F61
:1025E000029699838883828193819B838A83411594
:1025F000510529F4B093C205A093C10541C0FA0169
:10260000B383A283C191D191EC0FFD1FAE17BF0719
:1026100081F4F901929182918C0F9D1F0296DA014B
:1026200011969C938E938281938113969C938E93A3
:102630001297E0E0F0E002C0FB01BC01DB01129662
:102640008D919C9113970097B9F7CB0102962D912C
:102650003C911197820F931F2091BF053091C005C7
:102660002817390769F4309729F41092C20510929F
:10267000C10502C0138212827093C0056093BF052A
:10268000DF91CF911F910F910895FB01DC010D9017
:102690000020E9F7119701900D920020E1F70895CD
:1026A000FB0151915523A9F0BF01DC014D91451764
:1026B0004111E1F759F4CD010190002049F04D910D
:1026C00040154111C9F3FB014111EFCF81E090E0CA
:1026D00001970895FB019F01E8944230C4F0453210
:1026E000B4F44A3029F497FB1EF4909581959F4FDE
:1026F000642F77270E94FC11805D8A330CF0895D7E
:102700008193CB010097A1F716F45DE251931082FB
:10271000C9010C948B13DC01FC01672F71917723A5
:10272000E1F7329704C07C916D9370836291AE178C
:10273000BF07C8F3089511E0C6E5D1E004C0FE016B
:102740000E9412122296C835D107C9F7F894FFCF1C
:1027500000454E5452593A20456E747279436F7554
:102760006E743A20002A2A2A2A2A2A2A2A2A2A2A5F
:10277000547269676765722075726D312A2A2A2A38
:102780002A2A2A2A2A2A2A2A2A00455849543A203B
:10279000456E747279436F756E743A20002A2A2A46
:1027A0002A2A2A2A2A2A2A2A5472696767657220E5
:1027B00075726D322A2A2A2A2A2A2A2A2A2A2A2A9B
:1027C0002A00080003000300000000007E035010F0
:1027D000D6028802AC02C702000000004C10501064
:1027E0004C104C104C104C10627566666572206F70
:1027F000766572666C6F770000427566666572205A
:102800006F766572666C6F770024242400434D4414
:102810000065786974007265626F6F740D004F4BCC
:1028200000666163746F727920524553455400729B
:1028300065626F6F7400466163746F7279205245F0
:1028400053455420646F6E6500417474656D7074F7
:10285000696E6720636D64206D6F646500736574D5
:102860002069702061646472657373203136392E7B
:102870003235342E312E3100736574206970206E2C
:1028800065746D61736B203235352E3235352E30DF
:102890002E30007365742069702064686370203086
:1028A0000073657420776C616E20737369642057C0
:1028B00069466C792D4753582D585800736574201C
:1028C000776C616E206368616E6E656C2031007399
:1028D000657420776C616E206A6F696E20340073B6
:1028E00061766500446F6E65204164486F63004304
:1028F0006F6E6E656374656400436F6E6E656374BE
:102900006564212121006461746172656300524530
:1029100041445921007365742069702070726F748E
:102920006F2031380073657420646E73206E616DA2
:1029300065207777772E7261616A2E686F6D6569A1
:10294000702E6E6574007365742069702061646414
:102950007265737320300073657420636F6D20722D
:10296000656D6F7465203000446F6E65205365742B
:10297000485454500073656E647265706F6E736571
:10298000006F70656E207777772E7261616A2E68AE
:102990006F6D6569702E6E6574203830002A4F5057
:1029A000454E2A00706F7274206F70656E00474547
:1029B00054202F616464746F44422E7068703F63CA
:1029C0006F756E743D007375636365737300494E74
:1029D0005445525255505400576946693A20007286
:1029E0006561647900657869740072756E00507570
:1029F0006C73652070617573656400616100686166
:102A00006E6700646F6E655800456E746572416450
:102A1000686F636F6E00526561647920746F207215
:102A2000656365697665003C533E00060000C3059A
:102A3000200000000000B40F5010480F790F590F0C
:022A4000A20FE3
:00000001FF
